:0400000043EF00F0DA
:06000800678203ED04F025
:100018006780D8CF44F0E8CF45F0E0CF46F0FACF7C
:1000280047F0FBCF48F0D9CF49F0DACF4AF0F3CF09
:100038004BF0F4CF4CF0F0A624EF00F026EF00F0E0
:100048002FEF00F0F0A02BEF00F02DEF00F02FEFD6
:1000580000F0D1EC05F04CC0F4FF4BC0F3FF4AC0F0
:10006800DAFF49C0D9FF48C0FBFF47C0FAFF46C0C6
:10007800E0FF45C0E8FF44C0D8FF679010008AEF52
:1000880005F0010E0001886F80518111D8B44FEF3F
:1000980000F051EF00F062EF00F080C0D9FF81C09E
:1000A800DAFFDF30E832E832070B826F070E82652D
:1000B80060EF00F062EF00F0C7EF00F0000E886F0D
:1000C800E8EF00F080C0D9FF81C0DAFFDF30E83206
:1000D800E832070B826F010E836F822B76EF00F0F8
:1000E800D8908337822F74EF00F000018351FF0A04
:1000F800846F80C0D9FF81C0DAFFDF50070B856F9E
:100108008551020D0B0EF324D96E000EF420DA6E21
:10011800DECF86F0DDCF87F086C0D9FF87C0DAFF53
:100128008451DF16E8EF00F080C0D9FF81C0DAFF04
:10013800DF30E832E832070B826F010E836F822BC3
:10014800A8EF00F0D8908337822FA6EF00F080C088
:10015800D9FF81C0DAFFDF50070B0001846F84519B
:10016800020D0B0EF324D96E000EF420DA6EDECFEA
:1001780085F0DDCF86F085C0D9FF86C0DAFF8351D0
:10018800DF12E8EF00F080C0D9FF81C0DAFFDFBCE2
:10019800D0EF00F0D3EF00F0010ED4EF00F0000E26
:1001A800826F836B8351000AD8B4DDEF00F062EFF1
:1001B80000F08251000AD8B466EF00F0010AD8B402
:1001C80098EF00F062EF00F088511200010E000174
:1001D800896F80518111D8B4F4EF00F0F6EF00F088
:1001E80007EF01F080C0D9FF81C0DAFFDF30E832C5
:1001F800E832070B836F070E836505EF01F007EF01
:1002080001F06CEF01F0000E896F81EF01F080C002
:10021800D9FF81C0DAFFDF30E832E832070B836F9D
:10022800010E846F832B1BEF01F0D8908437832F46
:1002380019EF01F000018451FF0A856F80C0D9FFD2
:1002480081C0DAFFDF50070B866F8651020D010E61
:10025800F324D96E000EF420DA6EDECF87F0DDCFFE
:1002680088F087C0D9FF88C0DAFF8551DF1681EF93
:1002780001F080C0D9FF81C0DAFFDF30E832E83210
:10028800070B836F010E846F832B4DEF01F0D8901D
:100298008437832F4BEF01F080C0D9FF81C0DAFF8C
:1002A800DF50070B0001856F8551020D010EF32405
:1002B800D96E000EF420DA6EDECF86F0DDCF87F03F
:1002C80086C0D9FF87C0DAFF8451DF1281EF01F0C1
:1002D8008251836F846B8451000AD8B476EF01F0A1
:1002E80007EF01F08351000AD8B40BEF01F0010ABF
:1002F800D8B43DEF01F007EF01F089511200000179
:1003080080518111D8A48BEF01F08DEF01F0F9EF46
:1003180001F0000E846F18EF02F020EE03F0805118
:10032800D9268151DA22DF50D8A49DEF01F09FEF42
:1003380001F0A2EF01F0F19CB1EF01F020EE03F023
:100348008051D9268151DA22DE04D8A4AEEF01F01B
:10035800B0EF01F0B1EF01F0F18C010E846F18EFEE
:1003680002F020EE03F08051D9268151DA22DF50C5
:10037800D8A4C1EF01F0C3EF01F0C6EF01F0F19A84
:10038800B1EF01F020EE03F08051D9268151DA2235
:10039800DE04D8A4D2EF01F0D4EF01F0B1EF01F000
:1003A800F18AB1EF01F020EE03F08051D926815196
:1003B800DA22DF50D8A4E3EF01F0E5EF01F0E8EF2F
:1003C80001F0F198B1EF01F020EE03F08051D92649
:1003D8008151DA22DE04D8A4F4EF01F0F6EF01F03F
:1003E800B1EF01F0F188B1EF01F020EE04F0805197
:1003F800D9268151DA22DF50826F836B8351000A3C
:10040800D8B409EF02F08DEF01F08251000AD8B498
:1004180091EF01F0010AD8B4B5EF01F0030AD8B49E
:10042800D7EF01F08DEF01F08451120000018051E7
:100438008111D8A422EF02F024EF02F076EF02F047
:10044800000E846F95EF02F0F28EF288010E846F31
:1004580095EF02F0D08E20EE05F08051D92681511B
:10046800DA22DF50D8A43BEF02F03DEF02F040EF74
:1004780002F0F28C4FEF02F020EE05F08051D92601
:100488008151DA22DE04D8A44CEF02F04EEF02F0DC
:100498004FEF02F0F28EF0862AEF02F0D08E20EEB7
:1004A80005F08051D9268151DA22DF50D8A45FEFB8
:1004B80002F061EF02F064EF02F0F28C73EF02F0E9
:1004C80020EE05F08051D9268151DA22DE04D8A425
:1004D80070EF02F072EF02F073EF02F0F28EF08824
:1004E8002AEF02F020EE04F08051D9268151DA2259
:1004F800DF50826F836B8351000AD8B486EF02F015
:1005080024EF02F08251000AD8B428EF02F0010A61
:10051800D8B42EEF02F0030AD8B452EF02F024EF59
:1005280002F084511200000183518411D8A49FEF76
:1005380002F0A1EF02F0CFEF02F0000E876FEEEFAE
:1005480002F083C0D9FF84C0DAFFDECF80F0DDCFB0
:1005580081F045EC06F00001876FEEEF02F083C0F2
:10056800D9FF84C0DAFFDECF80F0DDCF81F02FEC39
:1005780006F00001876FEEEF02F083C0D9FF84C058
:10058800DAFFDECF80F0DDCF81F019EC06F0000154
:10059800876FEEEF02F020EE04F08351D9268451E4
:1005A800DA22DF50856F866B8651000AD8B4DFEFF8
:1005B80002F0A1EF02F08551000AD8B4A5EF02F0CD
:1005C800010AD8B4B3EF02F0030AD8B4C1EF02F0BD
:1005D800A1EF02F08751120039503A10D8B4F7EF62
:1005E80002F0F9EF02F00AEF03F039C0D9FF3AC080
:1005F800DAFFDF30E832E832070B3B6E070E3B6468
:1006080008EF03F00AEF03F00CEF03F038EF03F004
:1006180039C0D9FF3AC0DAFFDF30E832E832070BD9
:100628003B6E010E3C6E3B2A1CEF03F0D8903C3623
:100638003B2E1AEF03F039C0D9FF3AC0DAFFDF507A
:10064800070B3D6E3D50020D010EF324D96E000ECE
:10065800F420DA6EDECF3EF0DDCF3FF03EC0D9FFAA
:100668003FC0DAFF3C50DF1A120028502910D8B4D6
:1006780040EF03F042EF03F053EF03F028C0D9FF37
:1006880029C0DAFFDF30E832E832070B2A6E070E9E
:100698002A6451EF03F053EF03F055EF03F081EFB5
:1006A80003F028C0D9FF29C0DAFFDF30E832E8328A
:1006B800070B2A6E010E2B6E2A2A65EF03F0D890DD
:1006C8002B362A2E63EF03F028C0D9FF29C0DAFFA2
:1006D800DF50070B2C6E2C50020D010EF324D96E3F
:1006E800000EF420DA6EDECF2DF0DDCF2EF02DC017
:1006F800D9FF2EC0DAFF2B50DF1A1200010E0001BD
:10070800916F8E518F11D8A48CEF03F08EEF03F008
:1007180092EF03F0000E916FC0EF03F066C092F005
:100728008EC0D9FF8FC0DAFFDF500F0B906F925148
:100738009019F80B9019926F8EC0D9FF8FC0DAFF0D
:10074800DF38070B906F9047904790479251901968
:10075800C70B9019926F929D8EC0D9FF8FC0DAFF98
:10076800DFAE02D0928F02D00001929F920E8A6F64
:10077800000E8B6F24EC05F000019151120000016E
:100788008C518D11D8A4CBEF03F0CDEF03F0D1EF4E
:1007980003F0000E8E6F01EF04F08CC080F08DC066
:1007A80081F03EEC04F000018E6F8CC080F08DC0AB
:1007B80081F078EC04F000018E138CC080F08DC0BD
:1007C80081F083EC01F000018E138CC089F08DC09C
:1007D8008AF0B7EC05F000018E138CC083F08DC051
:1007E80084F097EC02F000018E138CC080F08DC06D
:1007F80081F01AEC02F000018E138E5112000600EF
:10080800FACF33F0FBCF34F0D9CF35F0DACF36F06A
:10081800F3CF37F0F4CF38F0F0A815EF04F017EF66
:1008280004F020EF04F0F0A21CEF04F01EEF04F037
:1008380020EF04F0E9EC05F0F2A825EF04F027EF2B
:1008480004F030EF04F0F2A22CEF04F02EEF04F0E5
:1008580030EF04F001EC06F038C0F4FF37C0F3FFC6
:1008680036C0DAFF35C0D9FF34C0FBFF33C0FAFF0A
:1008780067921100000180518111D8A446EF04F05D
:1008880048EF04F057EF04F0000E846F76EF04F0A1
:10089800F298010E846F76EF04F0F0964DEF04F0B5
:1008A800F0984DEF04F020EE04F08051D9268151E4
:1008B800DA22DF50826F836B8351000AD8B467EF66
:1008C80004F048EF04F08251000AD8B44CEF04F069
:1008D800010AD8B451EF04F0030AD8B454EF04F075
:1008E80048EF04F084511200000180518111D8A40E
:1008F80080EF04F082EF04F091EF04F0000E846FB3
:10090800B0EF04F0F292010E846FB0EF04F0F090B3
:1009180087EF04F0F09287EF04F020EE04F08051A6
:10092800D9268151DA22DF50826F836B8351000A06
:10093800D8B4A1EF04F082EF04F08251000AD8B4D1
:1009480086EF04F0010AD8B48BEF04F0030AD8B498
:100958008EEF04F082EF04F08451120040504110F1
:10096800D8A4B9EF04F0BBEF04F0BDEF04F0EAEF50
:1009780004F063C043F040C0D9FF41C0DAFFDF5044
:100988000F0B426E43504218F80B4218436E40C09A
:10099800D9FF41C0DAFFDF38070B426E42464246B4
:1009A800424643504218C70B4218436E439C40C00E
:1009B800D9FF41C0DAFFDFAE02D0438E01D0439E9B
:1009C800430E396E000E3A6EF0EC02F012002F5012
:1009D8003010D8A4F2EF04F0F4EF04F0F6EF04F0CE
:1009E80023EF05F063C032F02FC0D9FF30C0DAFF23
:1009F800DF500F0B316E32503118F80B3118326E50
:100A08002FC0D9FF30C0DAFFDF38070B316E31460F
:100A18003146314632503118C70B3118326E329C8C
:100A28002FC0D9FF30C0DAFFDFAE02D0328E01D03E
:100A3800329E320E286E000E296E39EC03F0120039
:100A480000018A518B11D8B42CEF05F02EEF05F078
:100A58003FEF05F08AC0D9FF8BC0DAFFDF30E832FC
:100A6800E832070B8C6F070E8C653DEF05F03FEF02
:100A780005F041EF05F059EF05F08AC080F08BC012
:100A880081F045EC00F000018D6F8AC080F08BC0CA
:100A980081F08AC0D9FF8BC0DAFF000EDFBE010EDD
:100AA800826FEAEC00F000018D6F1200B0EC06F0E6
:100AB8001F0E00018C6F000E8D6FC3EC03F0190E32
:100AC80000018C6F000E8D6FC3EC03F09D0E0001CA
:100AD8008C6F000E8D6FC3EC03F0270E00018E6F34
:100AE800000E8F6F82EC03F0260E00018E6F000E51
:100AF8008F6F82EC03F0250E00018E6F000E8F6F52
:100B080082EC03F086EF05F043EF00F0260EF66E58
:100B18000D0EF76E000EF86E00EE93F010EE10F06A
:100B28000900F5CFEEFFE550E150FAE1B60EF66E9A
:100B38000C0EF76E000EF86E00EE01F010EE27F0C6
:100B48000900F5CFEEFFE550E150FAE100EE4DF077
:100B58001A0EEE6AE806FDE167906792000EF86EDD
:100B680000015AEF05F0000189518A11D8A4BFEF9E
:100B780005F0C1EF05F0C5EF05F0000E8B6FCFEF64
:100B880005F0020E8925806F000E8A21816F45ECE1
:100B980000F000018B6F8B511200F0905F506010D5
:100BA800D8B4D9EF05F0DBEF05F0E8EF05F002D88F
:100BB800E8EF05F00500FA6E5F50FD6E6050FE6EBE
:100BC800F850FF6EFA5012001200F0925D505E105D
:100BD800D8B4F1EF05F0F3EF05F000EF06F002D816
:100BE80000EF06F00500FA6E5D50FD6E5E50FE6E79
:100BF800F850FF6EFA5012001200F2926150621023
:100C0800D8B409EF06F00BEF06F018EF06F002D89B
:100C180018EF06F00500FA6E6150FD6E6250FE6E28
:100C2800F850FF6EFA501200120000018051811135
:100C3800D8A421EF06F023EF06F027EF06F0000E08
:100C4800826F2DEF06F080C05DF081C05EF0010E6E
:100C5800826F82511200000180518111D8A437EFB0
:100C680006F039EF06F03DEF06F0000E826F43EF15
:100C780006F080C05FF081C060F0010E826F825183
:100C88001200000180518111D8A44DEF06F04FEFFA
:100C980006F053EF06F0000E826F59EF06F080C0A1
:100CA80061F081C062F0010E826F82511200890FDB
:100CB8008A0F8B0F8C0F8D0F920F930F940F950F38
:100CC800960F01010101DE0C49000101F60C4101FA
:050CD8000001221202E0
:100CDE0067A274EF06F09BEF06F0260E406E000E34
:100CEE00416EB2EC04F0120067A280EF06F0A2EFA4
:100CFE0006F0270E406E000E416EB2EC04F01200AC
:100D0E0067A28CEF06F0A9EF06F0250E406E000EDE
:100D1E00416EB2EC04F01200800F810F820F830F30
:100D2E00840F0E0D51010201260E2F6E000E306E35
:100D3E00EBEC04F01200270E2F6E000E306EEBEC73
:100D4E0004F01200250E2F6E000E306EEBEC04F048
:0A0D5E001200B3EC06F012001200C0
:020000040020DA
:08000000FFFFFFFFFFFFFFFF00
:020000040030CA
:0E000000FF071F1FFF8385FF0FC00FE00F409B
:00000001FF
